:060000000A128A11E12F33
:100DF8007E088A007F0882000A128A11FC260A12DD
:100E08008A118000840A04087D0603190034FF0A49
:100E18000319FE0A002F3F340034063400345B34D3
:100E280000344F340034663400346D3400347D347B
:100E38000034073400347F34003467340034C0345D
:100E48000034F9340034A4340034B0340034993414
:100E580000349234003482340034F834003480345E
:100E6800003490340034831603138501860187010A
:100E780083120313850186018701831603178801EE
:100E88008901203084004C30F0000408F10014304F
:100E9800F2007008840083130008F300F00A710858
:100EA800840073088000F10AF20B4D2F343084005F
:100EB800A030F0000408F1001430F200700884003B
:100EC80083130008F300F00A710884007308800097
:100ED800F10AF20B622F83120313C801C9018312AE
:100EE8000313CA01CB0183120313061086144808A2
:100EF800F0007007203E8400831300088500061563
:100F080086114808F0007007343E84000008870006
:100F18004130F100EE30F000F00B902FF10B902FE4
:100F2800000083120313861006144A08F0007007A5
:100F3800203E8400831300088500861506114A08A0
:100F4800F0007007343E8400000887004130F1004B
:100F5800EE30F000F00BAE2FF10BAE2F0000013099
:100F680083120313CA070318CB0A0030CB074B08B8
:100F7800803AFF0080307F02031DC42F0A304A02E6
:100F8800031CC72FC82F772F013083120313C807FC
:100F98000318C90A0030C9074908803AFF008030A1
:100FA8007F02031DD92F0A304802031CDC2FDD2FD6
:100FB800732F6F2F0A128A1100288313B430FD0093
:100FC8000730FE000F30FF00A03084000A128A119B
:100FD80000270A128A116030FD000730FE00233016
:100FE800FF004C3084000A128A1100270A128A1165
:080FF80083010A128A11372F50
:00000001FF
