:060000000A128A11EE2F26
:100E28007E088A007F0882000A128A1114270A1293
:100E38008A118000840A04087D0603190034FF0A19
:100E48000319FE0A182F3F340034063400345B348B
:100E580000344F340034663400346D3400347D344B
:100E68000034073400347F340034673400340330EE
:100E780083160313870088018312031387018801EF
:100E8800203084003830F0000408F1001430F200FB
:100E98007008840083130008F300F00A71088400C6
:100EA80073088000F10AF20B4C2FB601B701071C3A
:100EB8005E2F5F2F6D2F8718622F632F6D2F3408D9
:100EC8003504031D682F692F6D2F0130B4000030E1
:100ED800B50034033504031D722F732F7F2F0130A3
:100EE800B6070318B70A0030B7070130B40703186C
:100EF800B50A0030B5070718822F832F892F871866
:100F0800862F872F892FB401B5013708803AFF0053
:100F180080307F02031D922F0B3036020318952F65
:100F2800962FBF2F831203133708803AFF008030B3
:100F38007F02031DA12F01303602031CA42FA52F09
:100F4800BF2F831203133608F0007007FE3E203EC1
:100F5800840083130008F100710888040230F2004D
:100F68000430F100BA30F000F00BB82FF10BB82FB5
:100F7800F20BB82F0000831203133708803AFF00E2
:100F880080307F02031DCA2F0B303602031CCD2F81
:100F9800CE2FE12F0230F2000430F100BA30F00019
:100FA800F00BD42FF10BD42FF20BD42F000001300B
:100FB80083120313B6000030B70083120313871C93
:100FC800E62FE72F5B2FB601B70188015B2F0A12C6
:100FD8008A11002883134C30FD000730FE002730AB
:100FE800FF00383084000A128A1118270A128A1161
:080FF80083010A128A113B2F4C
:00000001FF
