:060000000A128A11EE2F26
:100CA200033400340B1D562E572E5E2E0130FC07E6
:100CB2000318FD0A0030FD070B110800F200831231
:100CC200031305118510720887000A128A116C2617
:100CD2000A128A1108008312031305144130F1002D
:100CE200EE30F000F00B732EF10B732E0000831226
:100CF200031305104130F100EE30F000F00B7F2EAF
:100D0200F10B7F2E00000800FB0083120313051570
:100D120085100A30F0000030F1007B08F900FA017A
:100D22007908F2007A08F3000A128A1118270A12C7
:100D32008A117008303E8312031387000A128A1147
:100D42006C260A128A110A30F0000030F1007B088A
:100D5200F900FA017908F2007A08F3000A128A11FE
:100D6200BF260A128A117008303E831203138700CD
:100D72000A128A116C260A128A110800F601F31F60
:100D8200C32EC42ECB2EF209F309F20A0319F30A79
:100D9200F601F60AF11FCE2ECF2ED42EF009F1095C
:100DA200F00A0319F10A700871040319D92EDA2E18
:100DB200092FF501F50AE82E01300310F00DF10DAF
:100DC200FF3E031DDE2E0130F4007408F507F11F0B
:100DD200EB2EEC2EDD2E71087302031DF22E70082D
:100DE2007202031CF52EF62EFC2E7008F202710818
:100DF200031CF303F30201300310F10CF00CFF3E6D
:100E0200031DFD2E0130F502031D082F092FEC2EC4
:100E1200760803190D2F0E2F132FF209F309F20A88
:100E22000319F30A7308F1007208F0000800F601D2
:100E3200F11F1C2F1D2F242FF009F109F00A0319AD
:100E4200F10AF601F60AF31F272F282F312FF20994
:100E5200F309F20A0319F30A0130F4007408F606E2
:100E6200F701F801700871040319382F392F702F18
:100E7200F501F50A472F01300310F00DF10DFF3E89
:100E8200031D3D2F0130F4007408F507F11F4A2FAE
:100E92004B2F3C2F01300310F70DF80DFF3E031DC1
:100EA2004C2F71087302031D582F70087202031C25
:100EB2005B2F5C2F632F7008F2027108031CF3038F
:100EC200F302771401300310F10CF00CFF3E031D06
:100ED200642F0130F502031D6F2F702F4B2F760800
:100EE2000319742F752F7A2FF709F809F70A0319D6
:100EF200F80A7808F1007708F000080048308316F5
:100F020003138500831203138501831603138701DC
:100F120083120313870183160313880183120313B9
:100F22008801831603178801063083160313810094
:100F3200833083120313810038300A128A115F262C
:100F42000A128A110E300A128A115F260A128A11B7
:100F520080300A128A115F260A128A118312031341
:100F6200851DB42FB52FCD2FC72F80300A128A11BD
:100F72005F260A128A110A128A1153260A128A114C
:100F82007C080A128A1185260A128A118312031317
:100F9200051FCC2FCD2FB62F051FD02FD12FEB2F12
:100FA200E72F02300A128A115F260A128A117C0880
:100FB2000A128A1185260A128A11831203138517CF
:100FC200FF30FC070318FD0AFF30FD07FD1FEA2F63
:100FD200EB2FD22F0A128A1100280A128A115126E7
:100FE2000A128A11A0000A128A1152260A128A11C2
:0E0FF200A100FC01FD0183010A128A117F2F6C
:00000001FF
