:060000000A128A11F62F1E
:100B82008312031387171030F000F00BC62D0000FC
:100B92008312031387131030F000F00BCE2D0000E8
:100BA20008007318D52DD92D831203138716DC2D57
:100BB20083120313871207137208F6007108F500F7
:100BC2000430FF00760DF60CF50CFF0BE32D7508D3
:100BD2000F3988000A128A11C1250A128A11710876
:100BE2000F398312031388000A128A11C1250A12CF
:100BF2008A110800F301F401F501F6011E2E0B1D06
:100C0200032E042E0F2E0130F5070318F60A0030CA
:100C1200F6070B1183308312031381007D307506B2
:100C22007604031D152E162E1E2E0130F30703180F
:100C3200F40A0030F407F501F6017408803AF20074
:100C42007108803A7202031D282E70087302031C79
:100C52002B2E2C2E002E0800F601F31F312E322EE1
:100C6200392EF209F309F20A0319F30AF601F60A18
:100C7200F11F3C2E3D2E422EF009F109F00A031914
:100C8200F10A700871040319472E482E772EF501D8
:100C9200F50A562E01300310F00DF10DFF3E031D33
:100CA2004C2E0130F4007408F507F11F592E5A2E0C
:100CB2004B2E71087302031D602E70087202031C12
:100CC200632E642E6A2E7008F2027108031CF3036D
:100CD200F30201300310F10CF00CFF3E031D6B2EEA
:100CE2000130F502031D762E772E5A2E760803194F
:100CF2007B2E7C2E812EF209F309F20A0319F30AE4
:100D02007308F1007208F000080083120313A101B6
:100D1200F81F8C2E8D2E942EF709F809F70A031965
:100D2200F80AA101A10AFA1F972E982EA12EF909FD
:100D3200FA09F90A0319FA0A0130FB007B08A10635
:100D4200A201A301770878040319A82EA92EE02E88
:100D5200A001A00AB72E01300310F70DF80DFF3ED7
:100D6200031DAD2E0130FB007B08A007F81FBA2E31
:100D7200BB2EAC2E01300310A20DA30DFF3E031DAE
:100D8200BC2E78087A02031DC82E77087902031C4C
:100D9200CB2ECC2ED32E7708F9027808031CFA0347
:100DA200FA02221401300310F80CF70CFF3E031D67
:100DB200D42E0130A002031DDF2EE02EBB2E21080F
:100DC2000319E42EE52EEA2EA209A309A20A0319A9
:100DD200A30A2308F8002208F70008006430F7008D
:100DE2000030F800831203132508FA002408F900E2
:100DF2000A128A1186260A128A11780883120313AC
:100E0200A7007708A6000A30F7000030F80025088E
:100E1200F3002408F2006430F0000030F1000A12FE
:100E22008A112D260A128A117108FA007008F90037
:100E32000A128A1186260A128A117808831203136B
:100E4200A9007708A8000A30F0000030F100250858
:100E5200F3002408F2000A128A112D260A128A11BE
:100E6200710883120313AB007008AA002608303EF3
:100E7200F10027080318013E003EF2000130F300A2
:100E82000030F4000A128A11D2250A128A11831242
:100E920003132808303EF10029080318013E003EE2
:100EA200F2000130F3000030F4000A128A11D22558
:100EB2000A128A11831203132A08303EF1002B080A
:100EC2000318013E003EF2000130F3000030F4004E
:100ED2000A128A11D2250A128A11080018308316C2
:100EE20003138700831203138701831603138801F8
:100EF20083120313880105308316031381008330A4
:100F02008312031381000230F1000030F20000303E
:100F1200F300F4000A128A11D2250A128A1128302B
:100F2200F1000030F2000030F300F4000A128A11DE
:100F3200D2250A128A110E30F1000030F200003080
:100F4200F300F4000A128A11D2250A128A118030A3
:100F5200F1000030F2000030F300F4000A128A11AE
:100F6200D2250A128A1183120313871DB92FBA2FB1
:100F7200DD2F8030F1000030F2000030F300F40089
:100F82000A128A11D2250A128A110130FC070318AB
:100F9200FD0A0030FD077D0883120313A5007C08BB
:100FA200A4000A128A11EF260A128A11831203136D
:100FB2008719DC2FDD2FD72F071EE02FE12FB42F4B
:100FC200071AE42FE52FE12F07147D08F1007C08B2
:100FD200F0000A128A11FB250A128A1183120313E6
:100FE2000710B42F0A128A110028FC01FD01831296
:0E0FF2000313AC01AD0183010A128A116F2FA7
:00000001FF
