:060000000A128A11FC2F18
:100EC0008316031385018312031385018316031709
:100ED000880189010330F3000030F4000430F5008C
:100EE0000030F600A72F0130F000730A792F0310AD
:100EF000F00DFF3E031D772F7008F100710883127B
:100F0000031385040130F000750A882F0310F00DDB
:100F1000FF3E031D862F7008F10071088504033021
:100F2000F2000830F1007730F000F00B952FF10B54
:100F3000952FF20B952FFF30F3070318F40AFF30BB
:100F4000F4070130F5070318F60A0030F6077608B3
:100F5000803AFF0080307F02031DB02F08307502F9
:100F6000031CB32FB42F732FEB2F0130F000730A43
:100F7000BB2F0310F00DFF3E031DB92F7008FF3A81
:100F8000F10071088312031385050130F000750A22
:100F9000CB2F0310F00DFF3E031DC92F7008FF3A41
:100FA000F100710885050330F2000830F100773058
:100FB000F000F00BD92FF10BD92FF20BD92F013004
:100FC000F3070318F40A0030F407FF30F50703189D
:100FD000F60AFF30F6077608803AFF0080307F027D
:100FE000031DF42F043075020318F72FF82FB52FC7
:100FF0006A2F0A128A11002883010A128A11602FAF
:00000001FF
