:060000000A128A11EE2F26
:100D24007418952E992E8312031305159C2E831285
:100D3400031305118510720887000A128A11D02640
:100D44000A128A1108007E088A007F0882000A12AB
:100D54008A11A5260A128A118000840A04087D06D5
:100D640003190034FF0A0319FE0AA92E23340034A0
:100D74002A340034393400343834003437340034FD
:100D840036340034353400343434003433340034ED
:100D940032340034313400343034003483120313D9
:100DA40005144130F100EE30F000F00BD72EF10BBA
:100DB400D72E00008312031305104130F100EE30EA
:100DC400F000F00BE32EF10BE32E00000800831279
:100DD40003130810881008153130F6000030F700AE
:100DE4003430F8000030F9003730FA000030FB00EE
:100DF4002A30FC000030FD000A128A118F270A12E3
:100E04008A11080083120313081108108814323061
:100E1400F6000030F7003530F8000030F9003830C3
:100E2400FA000030FB003030FC000030FD000A12F4
:100E34008A118F270A128A1108008312031388105B
:100E4400081108143330F6000030F7003630F8008B
:100E54000030F9003930FA000030FB002330FC0088
:100E64000030FD000A128A118F270A128A11080025
:100E7400F830831603138800831203138801831642
:100E84000313870183120313870183160313850158
:100E940083120313850183160317880189013830EF
:100EA400F2000030F3000030F400F5000A128A1159
:100EB40092260A128A110E30F2000030F30000303C
:100EC400F400F5000A128A1192260A128A110A12F3
:100ED4008A11E9260A128A110A128A1104270A12AF
:100EE4008A110A128A111F270A128A118312031304
:100EF400881F7D2F7E2F692F0130F2000030F30010
:100F04000130F4000030F5000A128A1192260A1208
:100F14008A11692F0A128A11002883120313881D6B
:100F2400942F952FA82F7708F3007608F20001304C
:100F3400F4000030F5000A128A1192260A128A116E
:100F4400831203138819A72FA82FA22F081EAB2FD3
:100F5400AC2FBF2F7908F3007808F2000130F400B9
:100F64000030F5000A128A1192260A128A1183129D
:100F74000313081ABE2FBF2FB92F881EC22FC32FE9
:100F8400D62F7B08F3007A08F2000130F400003019
:100F9400F5000A128A1192260A128A118312031387
:100FA400881AD52FD62FD02F081FD92FDA2FED2F3F
:100FB4007D08F3007C08F2000130F4000030F500F5
:100FC4000A128A1192260A128A1183120313081B29
:100FD400EC2FED2FE72F080083133830FD00063087
:100FE400FE00B830FF00203084000A128A11A926BE
:0C0FF4000A128A1183010A128A113A2F96
:00000001FF
