:060000000A128A11FC2F18
:100F3E00FF30F0070318F10AFF30F107700A031DA6
:100F4E00AC2F710A031DAC2FAD2F9F2F08008316F7
:100F5E000313850183120313850183160313860180
:100F6E008701880189018316031788018901FF30E3
:100F7E00831203138500E830F0000330F1000A12EB
:100F8E008A119F270A128A11831203138501E830F2
:100F9E00F0000330F1000A128A119F270A128A11FB
:100FAE00FF30831203138600FF308700FF30880066
:100FBE00E830F0000330F1000A128A119F270A125E
:100FCE008A11831203138801E830F0000330F10018
:100FDE000A128A119F270A128A11FF3083120313F5
:100FEE008900BE2F0A128A11002883010A128A1163
:020FFE00AE2F14
:00000001FF
