:060000000A128A11FC2F18
:100F3C000330831603138700831203138701F30115
:100F4C00F40183120313071CAC2FAD2FB72F013004
:100F5C00F3070318F40A0030F4070718B62FB72F5D
:100F6C00B32F871CBA2FBB2FA72F0718BE2FBF2F4D
:100F7C00A72FF501F601E82F831203138717023010
:100F8C00F2000430F100BA30F000F00BCB2FF10B73
:100F9C00CB2FF20BCB2F00008312031387130230DD
:100FAC00F2000430F100BA30F000F00BDB2FF10B43
:100FBC00DB2FF20BDB2F00000130F5070318F60ACC
:100FCC000030F6077608803AF0007408803A700218
:100FDC00031DF22F73087502031CF52FF62FC22F79
:100FEC00F301F401A72F0A128A11002883010A12B7
:040FFC008A119E2F89
:00000001FF
