:060000000A128A11FC2F18
:100DFA0083160313850186018701880189018312FD
:100E0A000313850186018701880189018316031767
:100E1A0088018901FF30831203138900F301F40169
:100E2A000130F000730A1B2F0310F00DFF3E031D63
:100E3A00192F7008F1007108831203138504013019
:100E4A00F000730A2A2F0310F00DFF3E031D282F0E
:100E5A007008F100710887040230F2008630F10050
:100E6A009930F000F00B372FF10B372FF20B372F99
:100E7A000130F3070318F40A0030F4077408803AC3
:100E8A00FF0080307F02031D4C2F08307302031CC1
:100E9A004F2F502F152FF501F6010130F000750A7A
:100EAA00582F0310F00DFF3E031D562F7008F10056
:100EBA0071088312031386040130F000750A672F44
:100ECA000310F00DFF3E031D652F7008F100710835
:100EDA0088040230F2008630F1009930F000F00BFD
:100EEA00742FF10B742FF20B742F0130F5070318CE
:100EFA00F60A0030F6077608803AFF0080307F0253
:100F0A00031D892F08307502031C8C2F8D2F522F39
:100F1A00F61F902F912F922FC32F0130F000750AE0
:100F2A00982F0310F00DFF3E031D962F7008FF3A0D
:100F3A00F10071088312031386050130F000750A67
:100F4A00A82F0310F00DFF3E031DA62F7008FF3ACD
:100F5A00F100710888050230F2008630F1009930FC
:100F6A00F000F00BB62FF10BB62FF20BB62FFF30B5
:100F7A00F5070318F60AFF30F6078D2FF41FC62F60
:100F8A00C72FC82F0F2F0130F000730ACE2F03107E
:100F9A00F00DFF3E031DCC2F7008FF3AF1007108D7
:100FAA008312031385050130F000730ADE2F031044
:100FBA00F00DFF3E031DDC2F7008FF3AF1007108A7
:100FCA0087050230F2008630F1009930F000F00B0C
:100FDA00EC2FF10BEC2FF20BEC2FFF30F307031879
:100FEA00F40AFF30F407C32F0A128A11002883017A
:060FFA000A128A11FD2E0F
:00000001FF
