:060000000A128A11EA2F2A
:100B1C007E088A007F0882000A128A118E250A122A
:100B2C008A118000840A04087D0603190034FF0A28
:100B3C000319FE0A922D3F340034063400345B3422
:100B4C0000344F340034663400346D3400347D345A
:100B5C000034073400347F34003467340034831697
:100B6C000313850183120313850183160313870175
:100B7C008312031387018316031388018312031353
:100B8C0088019C309100273092008316031788014E
:100B9C000A128A11D7250A128A11CE2D0A128A112D
:100BAC000028831203138C1CDC2DDD2DE72D013066
:100BBC00B4070318B50A0030B5078C109C309100AF
:100BCC0085147D3034063504031DED2DEE2DF72DE7
:100BDC000130CC070318CD0A0030CD07B401B501A4
:100BEC0005143508A5003408A4004D08A7004C08CE
:100BFC00A6000A128A11C7260A128A110800F601E9
:100C0C00F31F092E0A2E112EF209F309F20A031909
:100C1C00F30AF601F60AF11F142E152E1A2EF009FE
:100C2C00F109F00A0319F10A7008710403191F2E57
:100C3C00202E4F2EF501F50A2E2E01300310F00D4B
:100C4C00F10DFF3E031D242E0130F4007408F5074E
:100C5C00F11F312E322E232E71087302031D382EF4
:100C6C0070087202031C3B2E3C2E422E7008F202BE
:100C7C007108031CF303F30201300310F10CF00CA8
:100C8C00FF3E031D432E0130F502031D4E2E4F2E49
:100C9C00322E76080319532E542E592EF209F309CD
:100CAC00F20A0319F30A7308F1007208F000080045
:100CBC0083120313A101F81F642E652E6C2EF70905
:100CCC00F809F70A0319F80AA101A10AFA1F6F2EF5
:100CDC00702E792EF909FA09F90A0319FA0A01306A
:100CEC00FB007B08A106A201A30177087804031975
:100CFC00802E812EB82EA001A00A8F2E0130031059
:100D0C00F70DF80DFF3E031D852E0130FB007B080F
:100D1C00A007F81F922E932E842E01300310A20DE3
:100D2C00A30DFF3E031D942E78087A02031DA02EFE
:100D3C0077087902031CA32EA42EAB2E7708F90298
:100D4C007808031CFA03FA02221401300310F80C81
:100D5C00F70CFF3E031DAC2E0130A002031DB72E75
:100D6C00B82E932E21080319BC2EBD2EC22EA2091B
:100D7C00A309A20A0319A30A2308F8002208F70002
:100D8C0008006430F7000030F800831203132508C4
:100D9C00FA002408F9000A128A115E260A128A1136
:100DAC00780883120313A9007708A8000A30F7000B
:100DBC000030F8002508F3002408F2006430F0003D
:100DCC000030F1000A128A1105260A128A117108E4
:100DDC00FA007008F9000A128A115E260A128A11AA
:100DEC00780883120313AB007708AA000A30F000CE
:100DFC000030F1002508F3002408F2000A128A11D1
:100E0C0005260A128A11710883120313AD007008AB
:100E1C00AC006430F7000030F8002708FA00260810
:100E2C00F9000A128A115E260A128A1178088312B6
:100E3C000313AF007708AE000A30F7000030F8005B
:100E4C002708F3002608F2006430F0000030F100AF
:100E5C000A128A1105260A128A117108FA00700802
:100E6C00F9000A128A115E260A128A117808831276
:100E7C000313B1007708B0000A30F0000030F10025
:100E8C002708F3002608F2000A128A1105260A1216
:100E9C008A11710883120313B3007008B20088150D
:100EAC00081688160817881708112E08FC007C07EE
:100EBC00363E84008313000887000D30FD00FB30A4
:100ECC00FC00FC0B672FFD0B672F6C2F8312031399
:100EDC000815081688160817881788113008FC00A2
:100EEC007C07363E84008313000887000D30FD001C
:100EFC00FB30FC00FC0B802FFD0B802F852F831209
:100F0C000313881508158816081788170812320855
:100F1C00FC007C07363E84008313000887000D30EC
:100F2C00FD00FB30FC00FC0B992FFD0B992F9E2F25
:100F3C0083120313881508160815081788178812CA
:100F4C002808FC007C07363E8400831300088700C9
:100F5C000D30FD00FB30FC00FC0BB22FFD0BB22F53
:100F6C00B72F8312031388150816881608158817CF
:100F7C0008132A08FC007C07363E84008313000803
:100F8C0087000D30FD00FB30FC00FC0BCB2FFD0B64
:100F9C00CB2FD02F83120313881508168816081729
:100FAC00081588132C08FC007C07363E840083133C
:100FBC00000887000D30FD00FB30FC00FC0BE42F1B
:100FCC00FD0BE42FE92F080083134A30FD00053098
:100FDC00FE00A130FF00363084000A128A119225DF
:100FEC000A128A11CA01CB01CC01CD0183010A126C
:040FFC008A11B52D74
:00000001FF
