:060000000A128A11FA2F1A
:100C3A000B1D202E212E282E0130F9070318FA0A3F
:100C4A000030FA070B110800F2008312031387120F
:100C5A000713720888000A128A1136260A128A11A4
:100C6A0008008312031387174130F100EE30F000B9
:100C7A00F00B3D2EF10B3D2E000083120313871358
:100C8A004130F100EE30F000F00B492EF10B492E05
:100C9A000000080083120313871607130A30F000B6
:100CAA000030F1007A08F3007908F2000A128A117A
:100CBA00DB260A128A117008303E83120313880059
:100CCA000A128A1136260A128A110A30F0000030F6
:100CDA00F1007A08F3007908F2000A128A118226D2
:100CEA000A128A117008303E8312031388000A120E
:100CFA008A1136260A128A110800F601F31F862E77
:100D0A00872E8E2EF209F309F20A0319F30AF60165
:100D1A00F60AF11F912E922E972EF009F109F00A88
:100D2A000319F10A7008710403199C2E9D2ECC2E0A
:100D3A00F501F50AAB2E01300310F00DF10DFF3E5F
:100D4A00031DA12E0130F4007408F507F11FAE2E21
:100D5A00AF2EA02E71087302031DB52E7008720201
:100D6A00031CB82EB92EBF2E7008F2027108031C9C
:100D7A00F303F30201300310F10CF00CFF3E031DE4
:100D8A00C02E0130F502031DCB2ECC2EAF2E7608D5
:100D9A000319D02ED12ED62EF209F309F20A03191D
:100DAA00F30A7308F1007208F0000800F601F11F57
:100DBA00DF2EE02EE72EF009F109F00A0319F10AF5
:100DCA00F601F60AF31FEA2EEB2EF42EF209F309C6
:100DDA00F20A0319F30A0130F4007408F606F7015F
:100DEA00F801700871040319FB2EFC2E332FF5014C
:100DFA00F50A0A2F01300310F00DF10DFF3E031D15
:100E0A00002F0130F4007408F507F11F0D2F0E2F83
:100E1A00FF2E01300310F70DF80DFF3E031D0F2FB3
:100E2A0071087302031D1B2F70087202031C1E2F08
:100E3A001F2F262F7008F2027108031CF303F30216
:100E4A00771401300310F10CF00CFF3E031D272F1D
:100E5A000130F502031D322F332F0E2F76080319A6
:100E6A00372F382F3D2FF709F809F70A0319F80A1F
:100E7A007808F1007708F00008008316031385014B
:100E8A008312031385018316031387018312031345
:100E9A0087018316031388018312031388018316BB
:100EAA0003178801063083160313810083308312E7
:100EBA000313810038300A128A1129260A128A116C
:100ECA000E300A128A1129260A128A1180300A1251
:100EDA008A1129260A128A1180300A128A112926B1
:100EEA000A128A110A128A111D260A128A110A1274
:100EFA008A114F260A128A117A08803AFF00803036
:100F0A007F02031D8A2F01307902031C8D2F8E2F39
:100F1A00A32F7A08803AFF0080307F02031D972FA3
:100F2A001530790203189A2F9B2FA32F83120313CC
:100F3A000510851005128512051585157A08803A5F
:100F4A00FF0080307F02031DAC2F15307902031C8D
:100F5A00AF2FB02FC52F7A08803AFF0080307F026A
:100F6A00031DB92F1F3079020318BC2FBD2FC52FBF
:100F7A008312031305110510851105128514051630
:100F8A007A08803AFF0080307F02031DCE2F1F307F
:100F9A007902031CD12FD22FE72F7A08803AFF005B
:100FAA0080307F02031DDB2F333079020318DE2FD6
:100FBA00DF2FE72F83120313851005118511051200
:100FCA00051485167A08803AFF0080307F02031DD7
:100FDA00F02F33307902031CF32FF42F712FF9010C
:100FEA00FA01712F0A128A110028F901FA01830104
:060FFA000A128A11422FC9
:00000001FF
