:060000000A128A11F62F1E
:100B82008312031307161030F000F00BC62D00007D
:100B92008312031307121030F000F00BCE2D000069
:100BA20008007318D52DD92D831203130715DC2DD8
:100BB20083120313071187117208F6007108F500FA
:100BC2000430FF00760DF60CF50CFF0BE32D7508D3
:100BD2000F3988000A128A11C1250A128A11710876
:100BE2000F398312031388000A128A11C1250A12CF
:100BF2008A110800F301F401F501F601202E831297
:100C020003130C1C052E062E112E0130F5070318B6
:100C1200F60A0030F6070C10D8308F00F0308E0044
:100C2200323075067604031D172E182E202E013041
:100C3200F3070318F40A0030F407F501F60174080B
:100C4200803AF2007108803A7202031D2A2E70085F
:100C52007302031C2D2E2E2E002E0800F601F31F08
:100C6200332E342E3B2EF209F309F20A0319F30A4A
:100C7200F601F60AF11F3E2E3F2E442EF009F1092D
:100C8200F00A0319F10A700871040319492E4A2E59
:100C9200792EF501F50A582E01300310F00DF10DF1
:100CA200FF3E031D4E2E0130F4007408F507F11FBC
:100CB2005B2E5C2E4D2E71087302031D622E70088E
:100CC2007202031C652E662E6C2E7008F2027108E9
:100CD200031CF303F30201300310F10CF00CFF3E8E
:100CE200031D6D2E0130F502031D782E792E5C2E28
:100CF200760803197D2E7E2E832EF209F309F20A5D
:100D02000319F30A7308F1007208F0000800831255
:100D12000313A101F81F8E2E8F2E962EF709F809C4
:100D2200F70A0319F80AA101A10AFA1F992E9A2EAD
:100D3200A32EF909FA09F90A0319FA0A0130FB008C
:100D42007B08A106A201A301770878040319AA2E41
:100D5200AB2EE22EA001A00AB92E01300310F70D2E
:100D6200F80DFF3E031DAF2E0130FB007B08A007EC
:100D7200F81FBC2EBD2EAE2E01300310A20DA30D06
:100D8200FF3E031DBE2E78087A02031DCA2E770885
:100D92007902031CCD2ECE2ED52E7708F9027808C3
:100DA200031CFA03FA02221401300310F80CF70CA8
:100DB200FF3E031DD62E0130A002031DE12EE22EBE
:100DC200BD2E21080319E62EE72EEC2EA209A30957
:100DD200A20A0319A30A2308F8002208F700080050
:100DE2006430F7000030F800831203132508FA007C
:100DF2002408F9000A128A1188260A128A11780830
:100E020083120313A7007708A6000A30F700003008
:100E1200F8002508F3002408F2006430F0000030E6
:100E2200F1000A128A112F260A128A117108FA0099
:100E32007008F9000A128A1188260A128A117808A3
:100E420083120313A9007708A8000A30F0000030CB
:100E5200F1002508F3002408F2000A128A112F2655
:100E62000A128A11710883120313AB007008AA00D8
:100E72002608303EF10027080318013E003EF2002A
:100E82000130F3000030F4000A128A11D2250A124E
:100E92008A11831203132808303EF100290803182F
:100EA200013E003EF2000130F3000030F4000A126D
:100EB2008A11D2250A128A11831203132A08303E9C
:100EC200F1002B080318013E003EF2000130F3004E
:100ED2000030F4000A128A11D2250A128A1108007F
:100EE20003308316031387008312031387018316CB
:100EF20003138801831203138801D8308F00F03066
:100F02008E00113090000230F1000030F20000300B
:100F1200F300F4000A128A11D2250A128A1128302B
:100F2200F1000030F2000030F300F4000A128A11DE
:100F3200D2250A128A110E30F1000030F200003080
:100F4200F300F4000A128A11D2250A128A118030A3
:100F5200F1000030F2000030F300F4000A128A11AE
:100F6200D2250A128A1183120313071CB92FBA2F32
:100F7200DD2F8030F1000030F2000030F300F40089
:100F82000A128A11D2250A128A110130FC070318AB
:100F9200FD0A0030FD077D0883120313A5007C08BB
:100FA200A4000A128A11F1260A128A11831203136B
:100FB2000718DC2FDD2FD72F871CE02FE12FB42F4E
:100FC2008718E42FE52FE12F87167D08F1007C08B2
:100FD200F0000A128A11FB250A128A1183120313E6
:100FE2008712B42F0A128A110028FC01FD01831214
:0E0FF2000313AC01AD0183010A128A11712FA5
:00000001FF
