:060000000A128A11F42F20
:10002600731816281A288312031309141D2883121D
:1000360003130910710888000A128A15C1250A12CD
:100046008A110800E830F7000330F8008312031322
:100056002508FA002408F9000A128A1593260A12BE
:100066008A11780883120313A7007708A600643064
:10007600F7000030F8002508F3002408F200E83005
:10008600F0000330F1000A128A153A260A128A1184
:100096007108FA007008F9000A128A1593260A12E6
:1000A6008A11780883120313A9007708A8000A307A
:1000B600F7000030F8002508F3002408F200643049
:1000C600F0000030F1000A128A153A260A128A1147
:1000D6007108FA007008F9000A128A1593260A12A6
:1000E6008A11780883120313AB007708AA000A3036
:1000F600F0000030F1002508F3002408F2000A128F
:100106008A153A260A128A11710883120313AD0062
:100116007008AC002608303EF10027080318013E9F
:10012600003EF2000130F3000030F4000A128A119A
:1001360013200A128A11831203132808303EF10095
:1001460029080318013E003EF2000130F30000309A
:10015600F4000A128A1113200A128A118312031359
:100166002A08303EF1002B080318013E003EF2003B
:100176000130F3000030F4000A128A1113200A122B
:100186008A11831203132C08303EF1002D08031840
:10019600013E003EF2000130F3000030F4000A1286
:1001A6008A1113200A128A110800F8007808031928
:1001B600DD28DE28F228F31FE128E228F22870095C
:1001C600FA007109FB007209FC007309FD00FA0AC6
:1001D6000319FB0A0319FC0A0319FD0AFA28730816
:1001E600FD007208FC007108FB007008FA00730835
:1001F600720471047004031D012902290B290030C1
:10020600F3000030F2000030F1000030F0009129D8
:100216009630F4007408F9001D290130F4007408C2
:10022600F90701300310FD0CFC0CFB0CFA0CFF3E29
:10023600031D1529FE307D05031D222923291029BA
:100246003F290130F4007408F9070130FA0700303D
:1002560003180130FB07003003180130FC0700309B
:1002660003180130FD0701300310FD0CFC0CFB0CDC
:10027600FA0CFF3E031D3729FF307D05031D442977
:100286004529242951290130F9020130F4000310CF
:10029600FA0DFB0DFC0DFD0DF40B4A29FC1B542930
:1002A60055295B290230790203185A295B29462908
:1002B60079185E295F296729FF30FA05FF30FB05AB
:1002C6007F30FC05FF30FD050310F90C7908F400BA
:1002D600F501F601F70118300310F40DF50DF60DD2
:1002E600F70DFF3E031D6F297408FA047508FB0419
:1002F6007608FC047708FD04780803198329842905
:100306008929F31F872988298929FD177D08F30084
:100316007C08F2007B08F1007A08F0000800C03083
:10032600F1000030F2000030F300F4000A128A11E6
:1003360013200A128A11443083120313BD007F3042
:10034600BC00C030BB000030BA004030A300A03073
:10035600A2000030A1000030A0006008F000610893
:10036600F1000030F11BFF30F200F30001300A12F9
:100376008A11D8200A128A11730883120313A70060
:100386007208A6007108A5007008A4000A128A1156
:1003960093240A128A11831203132308C100220828
:1003A600C0002108BF002008BE000A128A11B6222A
:1003B6000A128A11831203133D08D7003C08D6009F
:1003C6003B08D5003A08D4005708A7005608A600EF
:1003D6005508A5005408A4004230A300C830A20066
:1003E6000030A1000030A0000A128A1193240A12DC
:1003F6008A11831203132308BD002208BC002108BA
:10040600BB002008BA000A128A15FC260A128A11B5
:10041600831203133B08DF003A08DE006430F7005E
:100426000030F8005F08FA005E08F9000A128A1523
:1004360093260A128A11780883120313D9007708C3
:10044600D8000A30F7000030F8005F08F3005E08B5
:10045600F2006430F0000030F1000A128A153A26E4
:100466000A128A117108FA007008F9000A128A1530
:1004760093260A128A11780883120313DB00770881
:10048600DA000A30F0000030F1005F08F3005E0881
:10049600F2000A128A153A260A128A117108831284
:1004A6000313DD007008DC005808303EF1005908DF
:1004B6000318013E003EF2000130F3000030F40064
:1004C6000A128A1113200A128A112E30F100003006
:1004D600F2000130F3000030F4000A128A111320F2
:1004E6000A128A11831203135A08303EF1005B0880
:1004F6000318013E003EF2000130F3000030F40024
:100506000A128A1113200A128A11831203135C0835
:10051600303EF1005D080318013E003EF200013056
:10052600F3000030F4000A128A1113200A128A110D
:100536002030F1000030F2000130F3000030F4000A
:100546000A128A1113200A128A115630F10000305D
:10055600F2000130F3000030F4000A128A11132071
:100566000A128A1108008312031341088039C20057
:100576004208CB004108C2004207C3004308D2002C
:10058600C01FC62AC72AC82A521452080319CC2AE1
:10059600CD2ADD2A520A031DD12AD22ADA2A0030B0
:1005A600C1000030C0000030BF000030BE00C017E0
:1005B600C101E52A0030C1000030C0000030BF0094
:1005C6000030BE003D088039C2004208CB063D0817
:1005D600C2004207C3004308D300BC1FF32AF42A13
:1005E600F52A531453080319F92AFA2A0A2B530A2F
:1005F600031DFE2AFF2A072B0030BD000030BC0079
:100606000030BB000030BA00BC17BD01122B003011
:10061600BD000030BC000030BB000030BA003D0811
:100626003C043B043A04031D192B1A2B332B0030D0
:10063600C1000030C0000030BF000030BE00803076
:10064600C0047F30C1044B08C2004208C1044108FF
:10065600BD004008BC003F08BB003E08BA00922C13
:100666005208031D372B382B412B0030BD000030BC
:10067600BC000030BB000030BA00922C5208C20009
:10068600C3014308C50053084202C400031CC50346
:1006960044087F3ECC0045080318013E003ECD00CD
:1006A6004108CA004008C9003F08C8003E08C70004
:1006B6000030C1000030C0000030BF000030BE0076
:1006C6000030D1000030D0000030CF000030CE0026
:1006D600D301B72B53080319712B722B922B0130C0
:1006E600C2000310C70DC80DC90DCA0DC20B742B6D
:1006F6000130C2000310BE0DBF0DC00DC10DC20BEF
:100706007D2BD11F872B882B892B3E140130C200ED
:100716000310CE0DCF0DD00DD10DC20B8B2B3D0886
:100726004A02031DA02B3C084902031DA02B3B08CF
:100736004802031DA02B3A084702031CA32BA42B37
:10074600B32B51173A08C7023B08031C3B0FC802DC
:100756003C08031C3C0FC9023D08031C3D0FCA029E
:100766000130C2004208D3071A305302031CBC2BC7
:10077600BD2B6D2B4A084904480447040319C42BB2
:10078600C52BE42B4E14E42B0130C2000310BE0D22
:10079600BF0DC00DC10DC20BC92BD11FD32BD42B3E
:1007A600D52B3E140130C2000310CE0DCF0DD00D57
:1007B600D10DC20BD72BFF30CC070318CD0AFF3063
:1007C600CD07C01FE72BE82BC72BD301D11FEC2B7E
:1007D600ED2B092CFF304E05C200FF304F05C3003C
:1007E600FF305005C4007F305105C500450844045C
:1007F600430442040319002C012C042CD301D30A10
:10080600092C3E1C072C082C092C012C5308031913
:100816000D2C0E2C3F2C0130BE0700300318013082
:10082600BF07003003180130C0070030031801303D
:10083600C107411C1F2C202C3F2C3E08C2003F083C
:10084600C3004008C4004108C5000130C600450D7C
:10085600C50CC40CC30CC20CC60B2A2C4508C1001F
:100866004408C0004308BF004208BE000130CC0760
:100876000318CD0A0030CD074D08803AFF008030BE
:100886007F02031D482CFF304C02031C4B2C4C2CC2
:100896005A2CFF3083120313CC000030CD000030F9
:1008A600C1000030C0000030BF000030BE0083121F
:1008B60003134D08803AFF0080307F02031D652C2C
:1008C60001304C020318682C692C762C8312031312
:1008D600CC01CD010030C1000030C0000030BF00A7
:1008E6000030BE00CB01831203134C08C20042083D
:1008F600D200521C7F2C802C822CC017862C7F3075
:10090600C2004208C0055208C2000310420CC300D0
:100916004308C1004B08C2004208C1042A2B080044
:100926008312031323088039A8002808AD00230882
:10093600A8002807A9002908B300A21FA32CA42CED
:10094600A52C331433080319A92CAA2CB92C330A65
:10095600031DAE2CAF2CB72C0030A3000030A20034
:100966000030A1000030A000A217C12C0030A30067
:100976000030A2000030A1000030A0002708803916
:10098600A8002808AD062708A8002807A9002908F6
:10099600B200A61FCF2CD02CD12C3214320803194A
:1009A600D52CD62CE52C320A031DDA2CDB2CE32CB5
:1009B6000030A7000030A6000030A5000030A400DB
:1009C600A617ED2C0030A7000030A6000030A500C9
:1009D6000030A40032080319F12CF22CF72C33084E
:1009E600031DF62CF72C002D0030A3000030A200CA
:1009F6000030A1000030A000F32F2008A80028082E
:100A0600F00026080A128A15D2250A128A117108E0
:100A160083120313B9007008B8003808A800A901AA
:100A2600AA01AB012B08B1002A08B0002908AF00C3
:100A36002808AE003908A800A901AA01AB012B08B5
:100A4600B7002A08B6002908B5002808B40021080E
:100A5600A8002808F00025080A128A15D2250A12CD
:100A66008A11710883120313B9007008B800380898
:100A7600A800A901AA01AB012808AE07290803119D
:100A86000318013E0319482DAF072A08031103185E
:100A9600013E03194F2DB0072B0803110318013E21
:100AA6000319562DB1073908A800A901AA01AB01FF
:100AB6002808B407290803110318013E0319642DF9
:100AC600B5072A0803110318013E03196B2DB60753
:100AD6002B0803110318013E0319722DB7072208CC
:100AE600A8002808F00024080A128A15D2250A123E
:100AF6008A11710883120313B9007008B800380808
:100B0600A800A901AA01AB012808AE07290803110C
:100B16000318013E0319902DAF072A080311031885
:100B2600013E0319972DB0072B0803110318013E48
:100B360003199E2DB1073908A800A901AA01AB0126
:100B46002808B407290803110318013E0319AC2D20
:100B5600B5072A0803110318013E0319B32DB6077A
:100B66002B0803110318013E0319BA2DB7070830E5
:100B7600A8000310AE0DAF0DB00DB10DA80BBC2D26
:100B86002108A8002808F00024080A128A15D22590
:100B96000A128A11710883120313B9007008B8008B
:100BA6003808A8003908A900AA01AB012808AE0731
:100BB600290803110318013E0319E22DAF072A087D
:100BC60003110318013E0319E92DB0072B08031181
:100BD6000318013E0319F02DB1072008A8002808C4
:100BE600F00025080A128A15D2250A128A11710800
:100BF60083120313B9007008B8003808A800390832
:100C0600A900AA01AB012808AE0729080311031899
:100C1600013E03190F2EAF072A0803110318013EE0
:100C26000319162EB0072B0803110318013E0319EA
:100C36001D2EB1070830A8000310AE0DAF0DB00D84
:100C4600B10DA80B1F2E2008A8002808F0002408C4
:100C56000A128A15D2250A128A1171088312031301
:100C6600B9007008B8003808A8003908A900AA0118
:100C7600AB012808AE07290803110318013E031922
:100C8600452EAF072A0803110318013E03194C2EFF
:100C9600B0072B0803110318013E0319532EB107A1
:100CA6002108A8002808F00026080A128A15D2256D
:100CB6000A128A11710883120313B9007008B8006A
:100CC6003808A8003908A900AA01AB012808B4070A
:100CD600290803110318013E0319722EB5072A08C5
:100CE60003110318013E0319792EB6072B080311C9
:100CF6000318013E0319802EB7072208A80028080A
:100D0600F00025080A128A15D2250A128A117108DE
:100D160083120313B9007008B8003808A800390810
:100D2600A900AA01AB012808B40729080311031872
:100D3600013E03199F2EB5072A0803110318013E29
:100D46000319A62EB6072B0803110318013E031933
:100D5600AD2EB7072208A8002808F00026080A12B8
:100D66008A15D2250A128A11710883120313B90053
:100D76007008B8003808A8003908A900AA01AB0114
:100D860008300310A80DA90DAA0DAB0DFF3E031DDB
:100D9600C42E2808B407290803110318013E0319B5
:100DA600D52EB5072A0803110318013E0319DC2EB8
:100DB600B6072B0803110318013E0319E32EB707E4
:100DC6002E08A8002F08A9003008AA003108AB0099
:100DD60018300310AB0CAA0CA90CA80CFF3E031D7F
:100DE600EC2E2808B407290803110318013E03193D
:100DF600FD2EB5072A0803110318013E0319042F17
:100E0600B6072B0803110318013E03190B2FB7076A
:100E16000830A8000310AE0DAF0DB00DB10DA80B34
:100E26000D2F33083207A800A901A90D2808823E14
:100E3600B80029080318013EFF3EB9003F2F0130D4
:100E4600A8000310B40DB50DB60DB70DA80B242FD1
:100E5600B11F2E2F2F2F302F34140130A80003106E
:100E6600AE0DAF0DB00DB10DA80B322FFF30B80788
:100E76000318B90AFF30B907B61F422F432F222F96
:100E8600B201B11F472F482F642FFF302E05A8004F
:100E9600FF302F05A900FF303005AA007F3031054D
:100EA600AB002B082A042904280403195B2F5C2FA6
:100EB6005F2FB201B20A642F341C622F632F642F96
:100EC6005C2F32080319682F692F9A2F0130B40757
:100ED600003003180130B507003003180130B6079B
:100EE600003003180130B707371C7A2F7B2F9A2F53
:100EF6003408A8003508A9003608AA003708AB0050
:100F06000130AC002B0DAB0CAA0CA90CA80CAC0B39
:100F1600852F2B08B7002A08B6002908B50028082F
:100F2600B4000130B8070318B90A0030B907390808
:100F3600803AFF0080307F02031DA32FFF30380266
:100F4600031CA62FA72FB22F7F3083120313B700DF
:100F56008030B6000030B5000030B400E72F8312B1
:100F660003133908803AFF0080307F02031DBD2F2E
:100F7600013038020318C02FC12FCD2F0030831245
:100F86000313B7000030B6000030B5000030B400DF
:100F9600AD01E72F831203133808A8002808B30011
:100FA600FF30B405FF30B5057F30B6050030B70514
:100FB600331CDE2FDF2FE02FB6173308A8000310EF
:100FC600280CA9002908B7002D08A8002808B7048E
:100FD6003708A3003608A2003508A1003408A0008F
:100FE600080083120313E001E101E201E301E401D9
:0A0FF600E50183010A128A15F92DA6
:101B82008312031389141030F000F00BC62D0000ED
:101B92008312031389101030F000F00BCE2D0000D9
:101BA2000800F800F401F5017008F200F301720870
:101BB200F6007308F700781CDF2DE02DE62D76087D
:101BC200F4070318F50A7708F50701300310F60D3C
:101BD200F70DFF3E031DE72D0310F80C7808031DD7
:101BE200F32DF42DDC2D7508F1007408F0000800C7
:101BF20001308316031385008312031385018316B4
:101C020003138801831203138801831603138901C6
:101C12008312031389018316031788018901803017
:101C2200831603139F003830F1000030F2000030B9
:101C3200F300F4000A128A1113200A128A150E30D8
:101C4200F1000030F2000030F300F4000A128A11B1
:101C520013200A128A150A128A1578270A128A157F
:101C62000A128A1192210A128A152C2E0A128A113C
:101C72000028F601F31F3E2E3F2E462EF209F309ED
:101C8200F20A0319F30AF601F60AF11F492E4A2E47
:101C92004F2EF009F109F00A0319F10A70087104D4
:101CA2000319542E552E842EF501F50A632E0130A8
:101CB2000310F00DF10DFF3E031D592E0130F4000B
:101CC2007408F507F11F662E672E582E71087302ED
:101CD200031D6D2E70087202031C702E712E772E5A
:101CE2007008F2027108031CF303F30201300310BF
:101CF200F10CF00CFF3E031D782E0130F502031D9E
:101D0200832E842E672E76080319882E892E8E2E16
:101D1200F209F309F20A0319F30A7308F1007208CF
:101D2200F000080083120313A101F81F992E9A2EC6
:101D3200A12EF709F809F70A0319F80AA101A10A65
:101D4200FA1FA42EA52EAE2EF909FA09F90A0319D3
:101D5200FA0A0130FB007B08A106A201A301770861
:101D620078040319B52EB62EED2EA001A00AC42EBA
:101D720001300310F70DF80DFF3E031DBA2E01309E
:101D8200FB007B08A007F81FC72EC82EB92E013012
:101D92000310A20DA30DFF3E031DC92E78087A027F
:101DA200031DD52E77087902031CD82ED92EE02EDA
:101DB2007708F9027808031CFA03FA0222140130A8
:101DC2000310F80CF70CFF3E031DE12E0130A002B8
:101DD200031DEC2EED2EC82E21080319F12EF22E32
:101DE200F72EA209A309A20A0319A30A2308F800DD
:101DF2002208F70008000310831203133C0D3D0D67
:101E0200BE003E08C4004408031D082F092F122FEC
:101E12000030BD000030BC000030BB000030BA0012
:101E2200772F3A08BE003B08BF003C08C0003D08BF
:101E3200C1001F300310C10CC00CBF0CBE0CFF3E12
:101E4200031D1B2F3E08C2004208C300BC17FF300F
:101E5200BA05FF30BB05FF30BC050030BD0596302A
:101E6200C402C41F352F362F502F4408803A973EA4
:101E720003183C2F3D2F3E2F092F01300310BD0CBC
:101E8200BC0CBB0CBA0CFF3E031D3F2F0130BE0041
:101E92003E08C407031D4E2F4F2F3E2F672F2030C1
:101EA2004402031C552F562F622F092F0130BE000A
:101EB2000310BA0DBB0DBC0DBD0DBE0B592F013069
:101EC200C4024408031D662F672F572F43080319C6
:101ED2006B2F6C2F772FBA09BB09BC09BD09BA0A4F
:101EE2000319BB0A0319BC0A0319BD0A0800803092
:101EF200F1000030F2000030F300F4000A128A11FF
:101F020013200A128A158130831203139F009F1433
:101F12009F188C2F8D2F892F1E08FC00FD017C0835
:101F2200E4007D08E500831603131E08FC00FD0192
:101F32007C0883120313E2007D08E3006408650451
:101F4200031DA42FA52FB22F6308E1006208E00051
:101F52006108A5006008A4000A128A1125200A124D
:101F62008A158312031364036504031DB92FBA2F64
:101F7200CB2F6208003EE00063080318013E013ED9
:101F8200E1006108A5006008A4000A128A11252058
:101F92000A128A1502308312031364066504031DB4
:101FA200D32FD42FE52F6208003EE0006308031808
:101FB200013E023EE1006108A5006008A4000A1289
:101FC2008A1125200A128A1503308312031364062C
:101FD2006504031DED2FEE2FFF2F6208003EE00087
:101FE20063080318013E033EE1006108A500600892
:0E1FF200A4000A128A1125200A128A1508007E
:00000001FF
