:060000000A128A11FC2F18
:100EF4008316031387018801831203138701880172
:100F0400081088103830870008158230F100DD3071
:100F1400F000F00B8B2FF10B8B2F902F8312031308
:100F240008118230F100DD30F000F00B972FF10B47
:100F3400972F9C2F83120313081088100E308700FC
:100F440008158230F100DD30F000F00BA72FF10B13
:100F5400A72FAC2F8312031308118230F100DD3068
:100F6400F000F00BB32FF10BB32FB82F8312031340
:100F7400081088108F30870008158230F100DD30AA
:100F8400F000F00BC32FF10BC32FC82F83120313F0
:100F940008118230F100DD30F000F00BCF2FF10B9F
:100FA400CF2FD42F831203130810881441308700E5
:100FB40008158230F100DD30F000F00BDF2FF10B6B
:100FC400DF2FE42F8312031308118230F100DD3088
:100FD400F000F00BEB2FF10BEB2FF02F8312031328
:100FE400081088140810881018308700A22F0A12DD
:0C0FF4008A11002883010A128A117A2F4A
:00000001FF
