:060000000A128A11F42F20
:100B32008312031309151030F000F00B9E2D0000F4
:100B42008312031309111030F000F00BA62D0000E0
:100B520008007318AD2DB12D831203138914B42D1F
:100B6200831203138910710888000A128A119925C9
:100B72000A128A11080001308316031385008312BA
:100B8200031385018316031388018312031388015B
:100B92008316031389018312031389018316031732
:100BA200880189018030831603139F003830F100D9
:100BB2000030F2000030F300F4000A128A11AA2574
:100BC2000A128A110E30F1000030F2000030F300F8
:100BD200F4000A128A11AA250A128A110A128A112B
:100BE200B9260A128A110A128A110028F601F31F85
:100BF200FB2DFC2D032EF209F309F20A0319F30A65
:100C0200F601F60AF11F062E072E0C2EF009F10945
:100C1200F00A0319F10A700871040319112E122E39
:100C2200412EF501F50A202E01300310F00DF10DD1
:100C3200FF3E031D162E0130F4007408F507F11F64
:100C4200232E242E152E71087302031D2A2E7008DE
:100C52007202031C2D2E2E2E342E7008F202710801
:100C6200031CF303F30201300310F10CF00CFF3EFE
:100C7200031D352E0130F502031D402E412E242E78
:100C820076080319452E462E4B2EF209F309F20A75
:100C92000319F30A7308F1007208F00008008312C6
:100CA2000313A101F81F562E572E5E2EF709F809DD
:100CB200F70A0319F80AA101A10AFA1F612E622E8E
:100CC2006B2EF909FA09F90A0319FA0A0130FB0035
:100CD2007B08A106A201A301770878040319722EEA
:100CE200732EAA2EA001A00A812E01300310F70D47
:100CF200F80DFF3E031D772E0130FB007B08A00795
:100D0200F81F842E852E762E01300310A20DA30D1E
:100D1200FF3E031D862E78087A02031D922E770865
:100D22007902031C952E962E9D2E7708F9027808DB
:100D3200031CFA03FA02221401300310F80CF70C18
:100D4200FF3E031D9E2E0130A002031DA92EAA2ED6
:100D5200852E21080319AE2EAF2EB42EA209A309A7
:100D6200A20A0319A30A2308F8002208F7000800C0
:100D72008130831203139F009F149F18C12EC22E2D
:100D8200BE2E1E08FC00FD017C08B2007D08B300E7
:100D9200831603131E08FC00FD017C088312031353
:100DA200B0007D08B10032083304031DD92EDA2EBB
:100DB200E72E3108AF003008AE002F08A5002E083C
:100DC200A4000A128A1135270A128A118312031308
:100DD20032033304031DEE2EEF2E002F3008003EA7
:100DE200AE0031080318013E013EAF002F08A500F6
:100DF2002E08A4000A128A1135270A128A1102301B
:100E02008312031332063304031D082F092F1A2FEE
:100E12003008003EAE0031080318013E023EAF002A
:100E22002F08A5002E08A4000A128A1135270A12DB
:100E32008A1103308312031332063304031D222F57
:100E4200232F342F3008003EAE0031080318013E34
:100E5200033EAF002F08A5002E08A4000A128A1133
:100E620035270A128A1108008030F1000030F200A2
:100E72000030F300F4000A128A11AA250A128A111C
:100E8200E830F7000330F800831203132508FA0054
:100E92002408F9000A128A1150260A128A117808C7
:100EA20083120313A7007708A6006430F70000300E
:100EB200F8002508F3002408F200E830F0000330BF
:100EC200F1000A128A11F7250A128A117108FA0032
:100ED2007008F9000A128A1150260A128A1178083B
:100EE20083120313A9007708A8000A30F700003024
:100EF200F8002508F3002408F2006430F000003006
:100F0200F1000A128A11F7250A128A117108FA00F1
:100F12007008F9000A128A1150260A128A117808FA
:100F220083120313AB007708AA000A30F0000030E6
:100F3200F1002508F3002408F2000A128A11F725AD
:100F42000A128A11710883120313AD007008AC00F3
:100F52002608303EF10027080318013E003EF20049
:100F62000130F3000030F4000A128A11AA250A1295
:100F72008A11831203132808303EF100290803184E
:100F8200013E003EF2000130F3000030F4000A128C
:100F92008A11AA250A128A11831203132A08303EE3
:100FA200F1002B080318013E003EF2000130F3006D
:100FB2000030F4000A128A11AA250A128A11831239
:100FC20003132C08303EF1002D080318013E003EA9
:100FD200F2000130F3000030F4000A128A11AA254F
:100FE2000A128A11080083120313AE01AF01B00185
:0E0FF200B101B201B30183010A128A11BC2DB4
:00000001FF
