:060000000A128A1110280B
:10000800FE00030E83120313AC000A08AD007F083C
:10001800AE000A128A113B2B0A128A111328831286
:100028000313C701C801C901CA0183010A128A1151
:10003800902B32308312031349064A04031D2528E6
:10004800262845280130C7070318C80A0030C80702
:10005800C901CA01C030B0000030B1000030B200A0
:10006800B3000A128A11DA230A128A1183120313BF
:100078004808C0004708BF000A128A11B3200A12B4
:100088008A11831203134808803AFF0080307F02E8
:10009800031D5028023047020318532854285928B2
:1000A8008312031307138713871683120313480851
:1000B800803AFF0080307F02031D64280330470226
:1000C800031C672868287C28831203134808803A91
:1000D800FF0080307F02031D732804304702031895
:1000E800762877287C28831203138712871307172B
:1000F800831203134808803AFF0080307F02031DF3
:10010800872805304702031C8A288B289F288312DA
:1001180003134808803AFF0080307F02031D9628A9
:1001280006304702031899289A289F288312031338
:10013800071387128717831203134808803AFF00B2
:1001480080307F02031DAA2808304702031CAD280F
:10015800AE28B22883120313C701C801080064300F
:1001680083120313B6000030B7004008B9003F08F7
:10017800B8000A128A11B5210A128A1183120313D0
:100188003708C2003608C1000A30B6000030B70090
:100198004008B2003F08B1006430AF000030B00042
:1001A8000A128A1187220A128A118312031330084D
:1001B800B9002F08B8000A128A11B5210A128A114B
:1001C800831203133708C4003608C3000A30AF008F
:1001D8000030B0004008B2003F08B1000A128A118E
:1001E80087220A128A11831203133008C6002F08C7
:1001F800C5004108303EB00042080318013E003EE9
:10020800B1000130B2000030B3000A128A11DA23BB
:100218000A128A11831203134308303EB0004408BF
:100228000318013E003EB1000130B2000030B300B7
:100238000A128A11DA230A128A1183120313450853
:10024800303EB00046080318013E003EB1000130C0
:10025800B2000030B3000A128A11DA230A128A1196
:1002680008006430F7000030F800831203132508F3
:10027800FA002408F9000A128A111E220A128A11A9
:10028800780883120313A7007708A6000A30F7003E
:100298000030F8002508F3002408F2006430F0006C
:1002A8000030F1000A128A11E2220A128A1171083A
:1002B800FA007008F9000A128A111E220A128A111D
:1002C800780883120313A9007708A8000A30F00001
:1002D8000030F1002508F3002408F2000A128A1100
:1002E800E2220A128A11710883120313AB00700804
:1002F800AA002608303EF10027080318013E003EF8
:10030800F2000130F3000030F4000A128A110524CB
:100318000A128A11831203132808303EF1002908B3
:100328000318013E003EF2000130F3000030F400F3
:100338000A128A1105240A128A11831203132A0841
:10034800303EF1002B080318013E003EF200013058
:10035800F3000030F4000A128A1105240A128A11E7
:10036800080083120313BC01B71FBB29BC29C3298A
:10037800B609B709B60A0319B70ABC01BC0AB91FFE
:10038800C629C729D029B809B909B80A0319B90A69
:100398000130BA003A08BC06BD01BE013608370470
:1003A8000319D729D8290F2ABB01BB0AE62901302E
:1003B8000310B60DB70DFF3E031DDC290130BA004E
:1003C8003A08BB07B71FE929EA29DB2901300310DE
:1003D800BD0DBE0DFF3E031DEB2937083902031D75
:1003E800F72936083802031CFA29FB29022A36089D
:1003F800B8023708031CB903B9023D1401300310D1
:10040800B70CB60CFF3E031D032A0130BB02031DC7
:100418000E2A0F2AEA293C080319132A142A192A32
:10042800BD09BE09BD0A0319BE0A3E08B7003D084A
:10043800B600080083120313A101F81F242A252AF5
:100448002C2AF709F809F70A0319F80AA101A10AE1
:10045800FA1F2F2A302A392AF909FA09F90A031941
:10046800FA0A0130FB007B08A106A201A301770864
:1004780078040319402A412A782AA001A00A4F2AA1
:1004880001300310F70DF80DFF3E031D452A01301A
:10049800FB007B08A007F81F522A532A442A013080
:1004A8000310A20DA30DFF3E031D542A78087A02FB
:1004B800031D602A77087902031C632A642A6B2AC1
:1004C8007708F9027808031CFA03FA0222140130AB
:1004D8000310F80CF70CFF3E031D6C2A0130A00234
:1004E800031D772A782A532A210803197C2A7D2A92
:1004F800822AA209A309A20A0319A30A2308F80059
:100508002208F700080083120313B501B21F8D2AD1
:100518008E2A952AB109B209B10A0319B20AB5019E
:10052800B50AB01F982A992A9E2AAF09B009AF0ABE
:100538000319B00A2F0830040319A32AA42AD32ABE
:10054800B401B40AB22A01300310AF0DB00DFF3E5A
:10055800031DA82A0130B3003308B407B01FB52A19
:10056800B62AA72A30083202031DBC2A2F083102F6
:10057800031CBF2AC02AC62A2F08B1023008031C50
:10058800B203B20201300310B00CAF0CFF3E031DE2
:10059800C72A0130B402031DD22AD32AB62A350845
:1005A8000319D72AD82ADD2AB109B209B10A0319D1
:1005B800B20A3208B0003108AF000800F601F31F94
:1005C800E62AE72AEE2AF209F309F20A0319F30ADE
:1005D800F601F60AF11FF12AF22AF72AF009F109C1
:1005E800F00A0319F10A700871040319FC2AFD2A9C
:1005F8002C2BF501F50A0B2B01300310F00DF10D32
:10060800FF3E031D012B0130F4007408F507F11FAC
:100618000E2B0F2B002B71087302031D152B70086E
:100628007202031C182B192B1F2B7008F202710879
:10063800031CF303F30201300310F10CF00CFF3E2E
:10064800031D202B0130F502031D2B2B2C2B0F2B08
:1006580076080319302B312B362BF209F309F20AED
:100668000319F30A7308F1007208F00008000C1C63
:100678003E2B3F2B852B0130C9070318CA0A0030CF
:10068800CA070C10D8308F00F0308E008030F1008F
:100698000030F2000030F300F4000A128A11052439
:1006A8000A128A11831203134A08A5004908A400F4
:1006B8000A128A1135210A128A1183120313480873
:1006C800803AFF0080307F02031D6C2B0230470206
:1006D80003186F2B702B732B831203138714831249
:1006E80003134808803AFF0080307F02031D7E2BE9
:1006F80003304702031C812B822B852B83120313A3
:100708008710831203132E08FF002D088A002C0E71
:100718008300FE0E7E0E09008316031388018312E0
:1007280003138801831603138701831203138701B8
:1007380011309000D8308F00F0308E008B170B17D7
:10074800831603130C14023083120313B000003015
:10075800B1000030B200B3000A128A11DA230A127B
:100768008A11283083120313B0000030B100003022
:10077800B200B3000A128A11DA230A128A110E3063
:1007880083120313B0000030B1000030B200B30090
:100798000A128A11DA230A128A110A128A111D20F2
:1007A8000A128A11D12B0A128A11102883120313F4
:1007B8003218DF2BE32B831203130714E62B831263
:1007C8000313071088123108B5003008B40004304C
:1007D800FF00350DB50CB40CFF0BED2B34080F39A9
:1007E80088000A128A112E240A128A11831203130E
:1007F80030080F3988000A128A112E240A128A1129
:1008080008007318082C0C2C8312031307140F2CE0
:1008180083120313071088127208F6007108F50096
:100828000430FF00760DF60CF50CFF0B162C75083E
:100838000F3988000A128A1143240A128A11710892
:100848000F398312031388000A128A1143240A12EB
:100858008A1108008312031308170F308312031339
:10086800AF00AF0B352C382C8312031308130F304D
:1008780083120313AF00AF0B3F2C422C08008312E6
:10088800031308171030F000F00B482C00008312F7
:10089800031308131030F000F00B502C0000080070
:00000001FF
