:060000000A128A11E02F34
:100E00000A128A117F270A128A1108007E088A00B6
:100E10007F0882000A128A1106270A128A118000AE
:100E2000840A04087D0603190034FF0A0319FE0A28
:100E30000A2F3F340034063400345B3400344F341E
:100E40000034663400346D3400347D3400340734AB
:100E500000347F34003467340034033083160313C6
:100E60008500831203138501831603138701831200
:100E70000313870183160313880183120313880168
:100E8000831603178801890183120313051C492F58
:100E90004A2F582F85184D2F4E2F582F7208730444
:100EA000031D532F542F582F0130F2000030F30050
:100EB00072037304031D5D2F5E2F6F2F0130F00747
:100EC0000318F10A0030F1070130F2070318F30AA2
:100ED0000030F3070A128A1100270A128A118312BE
:100EE00003130518742F752F442F8518782F792F29
:100EF000442FF201F301442F0A128A1100287108CD
:100F0000F9007008F800D12F7108F7007008F6009A
:100F1000BD2F83120313881508148814081178084C
:100F2000FC007C07203E84008313000887004130CA
:100F3000FD00EE30FC00FC0B9B2FFD0B9B2F0000F7
:100F40008312031308150814881488117608FC000E
:100F50007C07203E84008313000887004130FD0099
:100F6000EE30FC00FC0BB22FFD0BB22F0000013065
:100F7000F6070318F70A0030F7077108803AFC00FB
:100F80007708803A7C02031DC72F76087002031889
:100F9000CA2FCB2F892F0130F8070318F90A003028
:100FA000F9077108803AFC007908803A7C02031D39
:100FB000DB2F780870020318DE2FDF2F842F080044
:100FC00083133430FD000730FE001930FF0020305D
:100FD00084000A128A110A270A128A11B401B50183
:100FE000F001F101F201F301F401F501F601F7015D
:100FF000F801F901FA01FB0183010A128A112D2F70
:00000001FF
