:060000000A128A110C280F
:10000800FE00030EF2000A08F3000A128A114028C3
:100018000A128A110F28F001F10183010A128A11CC
:1000280015280130831603138600831203138601F3
:10003800831603138701831203138701831603179B
:1000480088018901D0308B0070037104031D2D28AD
:100058002E2832288312031307148710700871049E
:10006800031D3728382828288312031307108714FC
:1000780028280A128A110C288B1C432844284B284C
:1000880001307006F00000307106F1008B10730823
:0C0098008A00720E8300FE0E7E0E09002E
:00000001FF
