:100000000A128A11FC2F00308A000408840A820731
:100010000034703472346134743468346134703450
:0A00200000346C3465346F34003492
:100E98008312031307108710720888000A128A1138
:100EA80058270A128A1108008312031307154130C4
:100EB800F100EE30F000F00B5F2FF10B5F2F000018
:100EC8008312031307114130F100EE30F000F00BEC
:100ED8006B2FF10B6B2F00000800F3008312031334
:100EE800871007148A2F730884000A128A110320B6
:100EF8000A128A118312031388000A128A115827CA
:100F08000A128A110130F2007208F307730884008C
:100F18000A128A1103200A128A11003A031D952F1A
:100F2800962F772F080083160313870188018312F1
:100F38000313870188013830F2000030F3000A12E9
:100F48008A114C270A128A110E30F2000030F30081
:100F58000A128A114C270A128A11F501F601F501C5
:100F6800F6017508803EF20076080318013E003E3F
:100F7800F3000A128A114C270A128A1101300A1248
:100F88008A1171270A128A11CF30F4007508740289
:100F9800F20076090318013EF3000A128A114C2761
:100FA8000A128A1109300A128A1171270A128A1143
:100FB8000130F2000030F3000A128A114C270A129D
:100FC8008A110130F5070318F60A0030F60776088B
:100FD800803AFF0080307F02031DF42F1030750225
:100FE800031CF72FF82FB52FB12F0A128A110028EA
:080FF80083010A128A11972FF0
:00000001FF
